{
  "contractName": "Users",
  "abi": [
    {
      "constant": true,
      "inputs": [
        {
          "name": "",
          "type": "string"
        }
      ],
      "name": "userMap",
      "outputs": [
        {
          "name": "id",
          "type": "string"
        },
        {
          "name": "appliedCount",
          "type": "uint256"
        },
        {
          "name": "confirmedCount",
          "type": "uint256"
        }
      ],
      "payable": false,
      "stateMutability": "view",
      "type": "function"
    },
    {
      "constant": false,
      "inputs": [
        {
          "name": "_id",
          "type": "string"
        }
      ],
      "name": "userApplied",
      "outputs": [],
      "payable": false,
      "stateMutability": "nonpayable",
      "type": "function"
    },
    {
      "constant": false,
      "inputs": [
        {
          "name": "_id",
          "type": "string"
        }
      ],
      "name": "userConfirmed",
      "outputs": [],
      "payable": false,
      "stateMutability": "nonpayable",
      "type": "function"
    }
  ],
  "bytecode": "0x608060405234801561001057600080fd5b50610894806100206000396000f3fe608060405234801561001057600080fd5b50600436106100415760003560e01c8063b229358214610046578063cf6bc6fd14610101578063eb15f380146101bc575b600080fd5b6100ff6004803603602081101561005c57600080fd5b810190808035906020019064010000000081111561007957600080fd5b82018360208201111561008b57600080fd5b803590602001918460018302840111640100000000831117156100ad57600080fd5b91908080601f016020809104026020016040519081016040528093929190818152602001838380828437600081840152601f19601f8201169050808301925050505050505091929192905050506102fe565b005b6101ba6004803603602081101561011757600080fd5b810190808035906020019064010000000081111561013457600080fd5b82018360208201111561014657600080fd5b8035906020019184600183028401116401000000008311171561016857600080fd5b91908080601f016020809104026020016040519081016040528093929190818152602001838380828437600081840152601f19601f8201169050808301925050505050505091929192905050506104e4565b005b610275600480360360208110156101d257600080fd5b81019080803590602001906401000000008111156101ef57600080fd5b82018360208201111561020157600080fd5b8035906020019184600183028401116401000000008311171561022357600080fd5b91908080601f016020809104026020016040519081016040528093929190818152602001838380828437600081840152601f19601f8201169050808301925050505050505091929192905050506106ca565b6040518080602001848152602001838152602001828103825285818151815260200191508051906020019080838360005b838110156102c15780820151818401526020810190506102a6565b50505050905090810190601f1680156102ee5780820380516001836020036101000a031916815260200191505b5094505050505060405180910390f35b6103066107a2565b6000826040518082805190602001908083835b6020831061033c5780518252602082019150602081019050602083039250610319565b6001836020036101000a0380198251168184511680821785525050505050509050019150509081526020016040518091039020604051806060016040529081600082018054600181600116156101000203166002900480601f0160208091040260200160405190810160405280929190818152602001828054600181600116156101000203166002900480156104135780601f106103e857610100808354040283529160200191610413565b820191906000526020600020905b8154815290600101906020018083116103f657829003601f168201915b5050505050815260200160018201548152602001600282015481525050905080604001805180919060010181525050806000836040518082805190602001908083835b602083106104795780518252602082019150602081019050602083039250610456565b6001836020036101000a038019825116818451168082178552505050505050905001915050908152602001604051809103902060008201518160000190805190602001906104c89291906107c3565b5060208201518160010155604082015181600201559050505050565b6104ec6107a2565b6000826040518082805190602001908083835b6020831061052257805182526020820191506020810190506020830392506104ff565b6001836020036101000a0380198251168184511680821785525050505050509050019150509081526020016040518091039020604051806060016040529081600082018054600181600116156101000203166002900480601f0160208091040260200160405190810160405280929190818152602001828054600181600116156101000203166002900480156105f95780601f106105ce576101008083540402835291602001916105f9565b820191906000526020600020905b8154815290600101906020018083116105dc57829003601f168201915b5050505050815260200160018201548152602001600282015481525050905080602001805180919060010181525050806000836040518082805190602001908083835b6020831061065f578051825260208201915060208101905060208303925061063c565b6001836020036101000a038019825116818451168082178552505050505050905001915050908152602001604051809103902060008201518160000190805190602001906106ae9291906107c3565b5060208201518160010155604082015181600201559050505050565b600081805160208101820180518482526020830160208501208183528095505050505050600091509050806000018054600181600116156101000203166002900480601f01602080910402602001604051908101604052809291908181526020018280546001816001161561010002031660029004801561078c5780601f106107615761010080835404028352916020019161078c565b820191906000526020600020905b81548152906001019060200180831161076f57829003601f168201915b5050505050908060010154908060020154905083565b60405180606001604052806060815260200160008152602001600081525090565b828054600181600116156101000203166002900490600052602060002090601f016020900481019282601f1061080457805160ff1916838001178555610832565b82800160010185558215610832579182015b82811115610831578251825591602001919060010190610816565b5b50905061083f9190610843565b5090565b61086591905b80821115610861576000816000905550600101610849565b5090565b9056fea165627a7a7230582094a3bda37c3a6755274ce859603dae04dbf7bef06ad7f8401403ba53bbac11020029",
  "source": "pragma solidity 0.5.8;\n\ncontract Users {\n// Model a Candidate\n    struct User {\n        string id;\n        uint appliedCount;\n        uint confirmedCount;\n    }\n\n    // Read/write candidates\n    mapping(string => User) public userMap;\n\n    // constructor() public {\n    //     addCandidate(\"Candidate 1\");\n    //     addCandidate(\"Candidate 2\");\n    // }\n\n    function userApplied (string memory _id) public {\n        User memory user = userMap[_id];\n        user.appliedCount++;\n        userMap[_id] = user;\n    }\n\n    function userConfirmed (string memory _id) public {\n        User memory user = userMap[_id];\n        user.confirmedCount++;\n        userMap[_id] = user;\n    }\n}",
  "sourcePath": "/Users/macpro/Developer/Hackathons/NelNet19/NelNet/contracts/Users.sol",
  "compiler": {
    "name": "solc",
    "version": "0.5.8+commit.23d335f2.Emscripten.clang"
  },
  "schemaVersion": "3.0.16",
  "updatedAt": "2019-09-15T22:36:39.431Z",
  "devdoc": {
    "methods": {}
  },
  "userdoc": {
    "methods": {}
  }
}